{
  "_format": "hh-sol-artifact-1",
  "contractName": "PredictionMarket",
  "sourceName": "contracts/PredictionMarket.sol",
  "abi": [
    {
      "inputs": [],
      "stateMutability": "nonpayable",
      "type": "constructor"
    },
    {
      "anonymous": false,
      "inputs": [
        {
          "indexed": true,
          "internalType": "address",
          "name": "agent",
          "type": "address"
        },
        {
          "indexed": false,
          "internalType": "uint256",
          "name": "id",
          "type": "uint256"
        }
      ],
      "name": "AgentRenewed",
      "type": "event"
    },
    {
      "anonymous": false,
      "inputs": [
        {
          "indexed": true,
          "internalType": "address",
          "name": "agent",
          "type": "address"
        },
        {
          "indexed": false,
          "internalType": "uint256",
          "name": "id",
          "type": "uint256"
        }
      ],
      "name": "AgentSubscribed",
      "type": "event"
    },
    {
      "anonymous": false,
      "inputs": [
        {
          "indexed": true,
          "internalType": "uint256",
          "name": "id",
          "type": "uint256"
        },
        {
          "indexed": false,
          "internalType": "string",
          "name": "question",
          "type": "string"
        },
        {
          "indexed": false,
          "internalType": "string",
          "name": "description",
          "type": "string"
        },
        {
          "indexed": false,
          "internalType": "uint256",
          "name": "endTime",
          "type": "uint256"
        },
        {
          "indexed": false,
          "internalType": "string",
          "name": "cryptoCurrency",
          "type": "string"
        },
        {
          "indexed": false,
          "internalType": "uint256",
          "name": "targetPrice",
          "type": "uint256"
        }
      ],
      "name": "QuestionCreated",
      "type": "event"
    },
    {
      "anonymous": false,
      "inputs": [
        {
          "indexed": true,
          "internalType": "address",
          "name": "voter",
          "type": "address"
        },
        {
          "indexed": true,
          "internalType": "uint256",
          "name": "questionId",
          "type": "uint256"
        },
        {
          "indexed": false,
          "internalType": "bool",
          "name": "vote",
          "type": "bool"
        }
      ],
      "name": "VoteCasted",
      "type": "event"
    },
    {
      "anonymous": false,
      "inputs": [
        {
          "indexed": true,
          "internalType": "uint256",
          "name": "questionId",
          "type": "uint256"
        },
        {
          "indexed": false,
          "internalType": "bool",
          "name": "outcome",
          "type": "bool"
        }
      ],
      "name": "WinnerDeclared",
      "type": "event"
    },
    {
      "inputs": [
        {
          "internalType": "address",
          "name": "",
          "type": "address"
        },
        {
          "internalType": "uint256",
          "name": "",
          "type": "uint256"
        }
      ],
      "name": "addressToQuestionIdToAmt",
      "outputs": [
        {
          "internalType": "uint256",
          "name": "yesVotes",
          "type": "uint256"
        },
        {
          "internalType": "uint256",
          "name": "noVotes",
          "type": "uint256"
        }
      ],
      "stateMutability": "view",
      "type": "function"
    },
    {
      "inputs": [
        {
          "internalType": "uint256",
          "name": "_questionId",
          "type": "uint256"
        }
      ],
      "name": "checkAndResolveQuestion",
      "outputs": [],
      "stateMutability": "nonpayable",
      "type": "function"
    },
    {
      "inputs": [
        {
          "internalType": "uint256",
          "name": "_questionId",
          "type": "uint256"
        }
      ],
      "name": "closeQuestion",
      "outputs": [],
      "stateMutability": "nonpayable",
      "type": "function"
    },
    {
      "inputs": [
        {
          "internalType": "string",
          "name": "_question",
          "type": "string"
        },
        {
          "internalType": "string",
          "name": "_description",
          "type": "string"
        },
        {
          "internalType": "uint256",
          "name": "_endTime",
          "type": "uint256"
        },
        {
          "internalType": "string",
          "name": "_cryptoCurrency",
          "type": "string"
        },
        {
          "internalType": "uint256",
          "name": "_targetPrice",
          "type": "uint256"
        }
      ],
      "name": "createQuestion",
      "outputs": [],
      "stateMutability": "nonpayable",
      "type": "function"
    },
    {
      "inputs": [
        {
          "internalType": "address",
          "name": "_address",
          "type": "address"
        }
      ],
      "name": "getAddressQuestionAmounts",
      "outputs": [
        {
          "components": [
            {
              "internalType": "uint256",
              "name": "questionId",
              "type": "uint256"
            },
            {
              "internalType": "uint256",
              "name": "yesVotes",
              "type": "uint256"
            },
            {
              "internalType": "uint256",
              "name": "noVotes",
              "type": "uint256"
            }
          ],
          "internalType": "struct PredictionMarket.QuestionAmount[]",
          "name": "",
          "type": "tuple[]"
        }
      ],
      "stateMutability": "view",
      "type": "function"
    },
    {
      "inputs": [],
      "name": "getAllQuestions",
      "outputs": [
        {
          "components": [
            {
              "internalType": "uint256",
              "name": "id",
              "type": "uint256"
            },
            {
              "internalType": "string",
              "name": "question",
              "type": "string"
            },
            {
              "internalType": "string",
              "name": "description",
              "type": "string"
            },
            {
              "internalType": "uint256",
              "name": "endTime",
              "type": "uint256"
            },
            {
              "internalType": "uint256",
              "name": "yesVotes",
              "type": "uint256"
            },
            {
              "internalType": "uint256",
              "name": "noVotes",
              "type": "uint256"
            },
            {
              "internalType": "bool",
              "name": "isActive",
              "type": "bool"
            },
            {
              "internalType": "string",
              "name": "cryptoCurrency",
              "type": "string"
            },
            {
              "internalType": "uint256",
              "name": "targetPrice",
              "type": "uint256"
            }
          ],
          "internalType": "struct PredictionMarket.Question[]",
          "name": "",
          "type": "tuple[]"
        }
      ],
      "stateMutability": "view",
      "type": "function"
    },
    {
      "inputs": [
        {
          "internalType": "string",
          "name": "_cryptoCurrency",
          "type": "string"
        }
      ],
      "name": "getLatestPrice",
      "outputs": [
        {
          "internalType": "uint256",
          "name": "",
          "type": "uint256"
        }
      ],
      "stateMutability": "view",
      "type": "function"
    },
    {
      "inputs": [],
      "name": "getOwner",
      "outputs": [
        {
          "internalType": "address",
          "name": "",
          "type": "address"
        }
      ],
      "stateMutability": "view",
      "type": "function"
    },
    {
      "inputs": [
        {
          "internalType": "uint256",
          "name": "",
          "type": "uint256"
        }
      ],
      "name": "idToQuestion",
      "outputs": [
        {
          "internalType": "uint256",
          "name": "id",
          "type": "uint256"
        },
        {
          "internalType": "string",
          "name": "question",
          "type": "string"
        },
        {
          "internalType": "string",
          "name": "description",
          "type": "string"
        },
        {
          "internalType": "uint256",
          "name": "endTime",
          "type": "uint256"
        },
        {
          "internalType": "uint256",
          "name": "yesVotes",
          "type": "uint256"
        },
        {
          "internalType": "uint256",
          "name": "noVotes",
          "type": "uint256"
        },
        {
          "internalType": "bool",
          "name": "isActive",
          "type": "bool"
        },
        {
          "internalType": "string",
          "name": "cryptoCurrency",
          "type": "string"
        },
        {
          "internalType": "uint256",
          "name": "targetPrice",
          "type": "uint256"
        }
      ],
      "stateMutability": "view",
      "type": "function"
    },
    {
      "inputs": [],
      "name": "isOwner",
      "outputs": [
        {
          "internalType": "bool",
          "name": "",
          "type": "bool"
        }
      ],
      "stateMutability": "view",
      "type": "function"
    },
    {
      "inputs": [
        {
          "internalType": "uint256",
          "name": "",
          "type": "uint256"
        }
      ],
      "name": "isQuestionResolved",
      "outputs": [
        {
          "internalType": "bool",
          "name": "",
          "type": "bool"
        }
      ],
      "stateMutability": "view",
      "type": "function"
    },
    {
      "inputs": [],
      "name": "isSubscribed",
      "outputs": [
        {
          "internalType": "bool",
          "name": "",
          "type": "bool"
        }
      ],
      "stateMutability": "view",
      "type": "function"
    },
    {
      "inputs": [],
      "name": "oracle",
      "outputs": [
        {
          "internalType": "contract ISeiPriceOracle",
          "name": "",
          "type": "address"
        }
      ],
      "stateMutability": "view",
      "type": "function"
    },
    {
      "inputs": [],
      "name": "priceOracleAddress",
      "outputs": [
        {
          "internalType": "address",
          "name": "",
          "type": "address"
        }
      ],
      "stateMutability": "view",
      "type": "function"
    },
    {
      "inputs": [
        {
          "internalType": "uint256",
          "name": "",
          "type": "uint256"
        }
      ],
      "name": "questionTargetPrices",
      "outputs": [
        {
          "internalType": "uint256",
          "name": "",
          "type": "uint256"
        }
      ],
      "stateMutability": "view",
      "type": "function"
    },
    {
      "inputs": [
        {
          "internalType": "uint256",
          "name": "",
          "type": "uint256"
        }
      ],
      "name": "questionToWinningOutcome",
      "outputs": [
        {
          "internalType": "bool",
          "name": "",
          "type": "bool"
        }
      ],
      "stateMutability": "view",
      "type": "function"
    },
    {
      "inputs": [],
      "name": "renewSubscription",
      "outputs": [],
      "stateMutability": "payable",
      "type": "function"
    },
    {
      "inputs": [],
      "name": "subscribeAgent",
      "outputs": [],
      "stateMutability": "payable",
      "type": "function"
    },
    {
      "inputs": [],
      "name": "subscriptionFee",
      "outputs": [
        {
          "internalType": "uint256",
          "name": "",
          "type": "uint256"
        }
      ],
      "stateMutability": "view",
      "type": "function"
    },
    {
      "inputs": [],
      "name": "totalAgents",
      "outputs": [
        {
          "internalType": "uint256",
          "name": "",
          "type": "uint256"
        }
      ],
      "stateMutability": "view",
      "type": "function"
    },
    {
      "inputs": [],
      "name": "totalQuestions",
      "outputs": [
        {
          "internalType": "uint256",
          "name": "",
          "type": "uint256"
        }
      ],
      "stateMutability": "view",
      "type": "function"
    },
    {
      "inputs": [
        {
          "internalType": "address",
          "name": "",
          "type": "address"
        }
      ],
      "name": "userToAgent",
      "outputs": [
        {
          "internalType": "uint256",
          "name": "id",
          "type": "uint256"
        },
        {
          "internalType": "address",
          "name": "walletAddress",
          "type": "address"
        },
        {
          "internalType": "bool",
          "name": "isAcitve",
          "type": "bool"
        },
        {
          "internalType": "uint256",
          "name": "endTime",
          "type": "uint256"
        }
      ],
      "stateMutability": "view",
      "type": "function"
    },
    {
      "inputs": [
        {
          "internalType": "uint256",
          "name": "_questionId",
          "type": "uint256"
        },
        {
          "internalType": "bool",
          "name": "_vote",
          "type": "bool"
        }
      ],
      "name": "vote",
      "outputs": [],
      "stateMutability": "payable",
      "type": "function"
    },
    {
      "inputs": [
        {
          "internalType": "uint256",
          "name": "_questionId",
          "type": "uint256"
        },
        {
          "internalType": "uint256",
          "name": "_amount",
          "type": "uint256"
        },
        {
          "internalType": "bool",
          "name": "_vote",
          "type": "bool"
        }
      ],
      "name": "withdrawBets",
      "outputs": [],
      "stateMutability": "nonpayable",
      "type": "function"
    }
  ],
  "bytecode": "0x608060405267016345785d8a0000600355348015601b57600080fd5b50336000806101000a81548173ffffffffffffffffffffffffffffffffffffffff021916908373ffffffffffffffffffffffffffffffffffffffff160217905550732880ab155794e7179c9ee2e38200202908c17b43600a60006101000a81548173ffffffffffffffffffffffffffffffffffffffff021916908373ffffffffffffffffffffffffffffffffffffffff160217905550613c06806100c06000396000f3fe60806040526004361061014b5760003560e01c8063893d20e8116100b6578063bea5b9141161006f578063bea5b9141461049a578063c09f32e8146104c5578063c5053712146104ee578063c8a9011b14610519578063c9d27afe14610542578063f66a1b711461055e5761014b565b8063893d20e81461035f5780638a2815541461038a5780638f32d59b146103b5578063949a34fd146103e0578063983856fc1461041d578063a7ba27ab1461045a5761014b565b80634bda260e116101085780634bda260e146102755780636e3079811461029e57806375abbafe146102a85780637ca490dc146102b25780637dc0d1d0146102f7578063882803b2146103225761014b565b8063098cbcb1146101505780630aa0a1751461018e5780631d1e25f9146101b95780632af9338e146101f65780632bc51c6d1461022157806342f4d88b1461024c575b600080fd5b34801561015c57600080fd5b50610177600480360381019061017291906124e7565b61059b565b604051610185929190612536565b60405180910390f35b34801561019a57600080fd5b506101a36105cc565b6040516101b0919061255f565b60405180910390f35b3480156101c557600080fd5b506101e060048036038101906101db919061257a565b6105d2565b6040516101ed919061255f565b60405180910390f35b34801561020257600080fd5b5061020b6105ea565b60405161021891906127f6565b60405180910390f35b34801561022d57600080fd5b506102366108bd565b6040516102439190612827565b60405180910390f35b34801561025857600080fd5b50610273600480360381019061026e919061257a565b6108d5565b005b34801561028157600080fd5b5061029c6004803603810190610297919061286e565b610bde565b005b6102a66112fb565b005b6102b0611553565b005b3480156102be57600080fd5b506102d960048036038101906102d4919061257a565b611799565b6040516102ee9998979695949392919061291a565b60405180910390f35b34801561030357600080fd5b5061030c61198c565b6040516103199190612a1b565b60405180910390f35b34801561032e57600080fd5b506103496004803603810190610344919061257a565b6119b2565b6040516103569190612a36565b60405180910390f35b34801561036b57600080fd5b506103746119d2565b6040516103819190612827565b60405180910390f35b34801561039657600080fd5b5061039f6119fb565b6040516103ac9190612a36565b60405180910390f35b3480156103c157600080fd5b506103ca611a52565b6040516103d79190612a36565b60405180910390f35b3480156103ec57600080fd5b5061040760048036038101906104029190612a51565b611aa9565b6040516104149190612b6f565b60405180910390f35b34801561042957600080fd5b50610444600480360381019061043f919061257a565b611bf3565b6040516104519190612a36565b60405180910390f35b34801561046657600080fd5b50610481600480360381019061047c9190612a51565b611c13565b6040516104919493929190612b91565b60405180910390f35b3480156104a657600080fd5b506104af611c70565b6040516104bc919061255f565b60405180910390f35b3480156104d157600080fd5b506104ec60048036038101906104e7919061257a565b611c76565b005b3480156104fa57600080fd5b50610503611df1565b604051610510919061255f565b60405180910390f35b34801561052557600080fd5b50610540600480360381019061053b9190612d0b565b611df7565b005b61055c60048036038101906105579190612dda565b6120a1565b005b34801561056a57600080fd5b5061058560048036038101906105809190612e1a565b612326565b604051610592919061255f565b60405180910390f35b6006602052816000526040600020602052806000526040600020600091509150508060000154908060010154905082565b60035481565b60096020528060005260406000206000915090505481565b6060600060025467ffffffffffffffff81111561060a57610609612be0565b5b60405190808252806020026020018201604052801561064357816020015b6106306123d0565b8152602001906001900390816106285790505b5090506000600190505b60025481116108b55760086000828152602001908152602001600020604051806101200160405290816000820154815260200160018201805461068f90612e92565b80601f01602080910402602001604051908101604052809291908181526020018280546106bb90612e92565b80156107085780601f106106dd57610100808354040283529160200191610708565b820191906000526020600020905b8154815290600101906020018083116106eb57829003601f168201915b5050505050815260200160028201805461072190612e92565b80601f016020809104026020016040519081016040528092919081815260200182805461074d90612e92565b801561079a5780601f1061076f5761010080835404028352916020019161079a565b820191906000526020600020905b81548152906001019060200180831161077d57829003601f168201915b505050505081526020016003820154815260200160048201548152602001600582015481526020016006820160009054906101000a900460ff161515151581526020016007820180546107ec90612e92565b80601f016020809104026020016040519081016040528092919081815260200182805461081890612e92565b80156108655780601f1061083a57610100808354040283529160200191610865565b820191906000526020600020905b81548152906001019060200180831161084857829003601f168201915b50505050508152602001600882015481525050826001836108869190612ef2565b8151811061089757610896612f26565b5b602002602001018190525080806108ad90612f55565b91505061064d565b508091505090565b732880ab155794e7179c9ee2e38200202908c17b4381565b60008054906101000a900473ffffffffffffffffffffffffffffffffffffffff1673ffffffffffffffffffffffffffffffffffffffff163373ffffffffffffffffffffffffffffffffffffffff1614610963576040517f08c379a000000000000000000000000000000000000000000000000000000000815260040161095a9061300f565b60405180910390fd5b60006008600083815260200190815260200160002090508060060160009054906101000a900460ff166109cb576040517f08c379a00000000000000000000000000000000000000000000000000000000081526004016109c29061307b565b60405180910390fd5b42816003015410610a11576040517f08c379a0000000000000000000000000000000000000000000000000000000008152600401610a08906130e7565b60405180910390fd5b6004600083815260200190815260200160002060009054906101000a900460ff1615610a72576040517f08c379a0000000000000000000000000000000000000000000000000000000008152600401610a6990613153565b60405180910390fd5b6000610b09826007018054610a8690612e92565b80601f0160208091040260200160405190810160405280929190818152602001828054610ab290612e92565b8015610aff5780601f10610ad457610100808354040283529160200191610aff565b820191906000526020600020905b815481529060010190602001808311610ae257829003601f168201915b5050505050612326565b9050600060096000858152602001908152602001600020549050600081831015905060008460060160006101000a81548160ff021916908315150217905550806005600087815260200190815260200160002060006101000a81548160ff02191690831515021790555060016004600087815260200190815260200160002060006101000a81548160ff021916908315150217905550847faefd4aafc65152d4c3b7bbfe3a796d25e24eb2902bfef1ef90fe115f02af980282604051610bcf9190612a36565b60405180910390a25050505050565b60008211610c21576040517f08c379a0000000000000000000000000000000000000000000000000000000008152600401610c18906131bf565b60405180910390fd5b6000600860008581526020019081526020016000209050600081600501548260040154610c4e91906131df565b9050600083610c61578260050154610c67565b82600401545b90506004600087815260200190815260200160002060009054906101000a900460ff1615610fda5760008415156005600089815260200190815260200160002060009054906101000a900460ff16151514905080610cfa576040517f08c379a0000000000000000000000000000000000000000000000000000000008152600401610cf19061325f565b60405180910390fd5b6005600088815260200190815260200160002060009054906101000a900460ff16151585151503610fd4576000600660003373ffffffffffffffffffffffffffffffffffffffff1673ffffffffffffffffffffffffffffffffffffffff1681526020019081526020016000206000898152602001908152602001600020600001541015610dbc576040517f08c379a0000000000000000000000000000000000000000000000000000000008152600401610db3906132cb565b60405180910390fd5b600085610e1c57600660003373ffffffffffffffffffffffffffffffffffffffff1673ffffffffffffffffffffffffffffffffffffffff168152602001908152602001600020600089815260200190815260200160002060010154610e71565b600660003373ffffffffffffffffffffffffffffffffffffffff1673ffffffffffffffffffffffffffffffffffffffff1681526020019081526020016000206000898152602001908152602001600020600001545b90506000600660003373ffffffffffffffffffffffffffffffffffffffff1673ffffffffffffffffffffffffffffffffffffffff16815260200190815260200160002060008a8152602001908152602001600020600001819055506000600660003373ffffffffffffffffffffffffffffffffffffffff1673ffffffffffffffffffffffffffffffffffffffff16815260200190815260200160002060008a81526020019081526020016000206001018190555060003373ffffffffffffffffffffffffffffffffffffffff1682604051610f4b9061331c565b60006040518083038185875af1925050503d8060008114610f88576040519150601f19603f3d011682016040523d82523d6000602084013e610f8d565b606091505b5050905080610fd1576040517f08c379a0000000000000000000000000000000000000000000000000000000008152600401610fc89061337d565b60405180910390fd5b50505b506112f3565b83156110e55784600660003373ffffffffffffffffffffffffffffffffffffffff1673ffffffffffffffffffffffffffffffffffffffff1681526020019081526020016000206000888152602001908152602001600020600001541015611076576040517f08c379a000000000000000000000000000000000000000000000000000000000815260040161106d906132cb565b60405180910390fd5b84600660003373ffffffffffffffffffffffffffffffffffffffff1673ffffffffffffffffffffffffffffffffffffffff168152602001908152602001600020600088815260200190815260200160002060000160008282546110d99190612ef2565b925050819055506111e6565b84600660003373ffffffffffffffffffffffffffffffffffffffff1673ffffffffffffffffffffffffffffffffffffffff168152602001908152602001600020600088815260200190815260200160002060010154101561117b576040517f08c379a0000000000000000000000000000000000000000000000000000000008152600401611172906133e9565b60405180910390fd5b84600660003373ffffffffffffffffffffffffffffffffffffffff1673ffffffffffffffffffffffffffffffffffffffff168152602001908152602001600020600088815260200190815260200160002060010160008282546111de9190612ef2565b925050819055505b60008183876111f59190613409565b6111ff919061347a565b905080471015611244576040517f08c379a000000000000000000000000000000000000000000000000000000000815260040161123b906134f7565b60405180910390fd5b60003373ffffffffffffffffffffffffffffffffffffffff168260405161126a9061331c565b60006040518083038185875af1925050503d80600081146112a7576040519150601f19603f3d011682016040523d82523d6000602084013e6112ac565b606091505b50509050806112f0576040517f08c379a00000000000000000000000000000000000000000000000000000000081526004016112e79061337d565b60405180910390fd5b50505b505050505050565b600354341015611340576040517f08c379a000000000000000000000000000000000000000000000000000000000815260040161133790613589565b60405180910390fd5b600073ffffffffffffffffffffffffffffffffffffffff16600760003373ffffffffffffffffffffffffffffffffffffffff1673ffffffffffffffffffffffffffffffffffffffff16815260200190815260200160002060010160009054906101000a900473ffffffffffffffffffffffffffffffffffffffff1673ffffffffffffffffffffffffffffffffffffffff1603611411576040517f08c379a00000000000000000000000000000000000000000000000000000000081526004016114089061361b565b60405180910390fd5b62278d004261142091906131df565b600760003373ffffffffffffffffffffffffffffffffffffffff1673ffffffffffffffffffffffffffffffffffffffff168152602001908152602001600020600201819055506001600760003373ffffffffffffffffffffffffffffffffffffffff1673ffffffffffffffffffffffffffffffffffffffff16815260200190815260200160002060010160146101000a81548160ff0219169083151502179055503373ffffffffffffffffffffffffffffffffffffffff167f9985e74fe05da874830fda014601404ec5a28526a398ea1d6979e533bcbfc2a0600760003373ffffffffffffffffffffffffffffffffffffffff1673ffffffffffffffffffffffffffffffffffffffff16815260200190815260200160002060000154604051611549919061255f565b60405180910390a2565b600354341015611598576040517f08c379a000000000000000000000000000000000000000000000000000000000815260040161158f90613589565b60405180910390fd5b600760003373ffffffffffffffffffffffffffffffffffffffff1673ffffffffffffffffffffffffffffffffffffffff16815260200190815260200160002060010160149054906101000a900460ff1615611628576040517f08c379a000000000000000000000000000000000000000000000000000000000815260040161161f90613687565b60405180910390fd5b6001600081548092919061163b90612f55565b9190505550604051806080016040528060015481526020013373ffffffffffffffffffffffffffffffffffffffff16815260200160011515815260200162278d004261168791906131df565b815250600760003373ffffffffffffffffffffffffffffffffffffffff1673ffffffffffffffffffffffffffffffffffffffff1681526020019081526020016000206000820151816000015560208201518160010160006101000a81548173ffffffffffffffffffffffffffffffffffffffff021916908373ffffffffffffffffffffffffffffffffffffffff16021790555060408201518160010160146101000a81548160ff021916908315150217905550606082015181600201559050503373ffffffffffffffffffffffffffffffffffffffff167f1aa06fd7f962d84cbccf87fe7c55cca5f1bdb9d63cf6ec9169e1aa9d1d777e4b60015460405161178f919061255f565b60405180910390a2565b60086020528060005260406000206000915090508060000154908060010180546117c290612e92565b80601f01602080910402602001604051908101604052809291908181526020018280546117ee90612e92565b801561183b5780601f106118105761010080835404028352916020019161183b565b820191906000526020600020905b81548152906001019060200180831161181e57829003601f168201915b50505050509080600201805461185090612e92565b80601f016020809104026020016040519081016040528092919081815260200182805461187c90612e92565b80156118c95780601f1061189e576101008083540402835291602001916118c9565b820191906000526020600020905b8154815290600101906020018083116118ac57829003601f168201915b5050505050908060030154908060040154908060050154908060060160009054906101000a900460ff169080600701805461190390612e92565b80601f016020809104026020016040519081016040528092919081815260200182805461192f90612e92565b801561197c5780601f106119515761010080835404028352916020019161197c565b820191906000526020600020905b81548152906001019060200180831161195f57829003601f168201915b5050505050908060080154905089565b600a60009054906101000a900473ffffffffffffffffffffffffffffffffffffffff1681565b60046020528060005260406000206000915054906101000a900460ff1681565b60008060009054906101000a900473ffffffffffffffffffffffffffffffffffffffff16905090565b6000600760003373ffffffffffffffffffffffffffffffffffffffff1673ffffffffffffffffffffffffffffffffffffffff16815260200190815260200160002060010160149054906101000a900460ff16905090565b60008060009054906101000a900473ffffffffffffffffffffffffffffffffffffffff1673ffffffffffffffffffffffffffffffffffffffff163373ffffffffffffffffffffffffffffffffffffffff1614905090565b6060600060025467ffffffffffffffff811115611ac957611ac8612be0565b5b604051908082528060200260200182016040528015611b0257816020015b611aef61241e565b815260200190600190039081611ae75790505b5090506000600190505b6002548111611be9576000600660008673ffffffffffffffffffffffffffffffffffffffff1673ffffffffffffffffffffffffffffffffffffffff1681526020019081526020016000206000838152602001908152602001600020604051806040016040529081600082015481526020016001820154815250509050604051806060016040528083815260200182600001518152602001826020015181525083600184611bb99190612ef2565b81518110611bca57611bc9612f26565b5b6020026020010181905250508080611be190612f55565b915050611b0c565b5080915050919050565b60056020528060005260406000206000915054906101000a900460ff1681565b60076020528060005260406000206000915090508060000154908060010160009054906101000a900473ffffffffffffffffffffffffffffffffffffffff16908060010160149054906101000a900460ff16908060020154905084565b60025481565b60008054906101000a900473ffffffffffffffffffffffffffffffffffffffff1673ffffffffffffffffffffffffffffffffffffffff163373ffffffffffffffffffffffffffffffffffffffff1614611d04576040517f08c379a0000000000000000000000000000000000000000000000000000000008152600401611cfb9061300f565b60405180910390fd5b6008600082815260200190815260200160002060060160009054906101000a900460ff16611d67576040517f08c379a0000000000000000000000000000000000000000000000000000000008152600401611d5e9061307b565b60405180910390fd5b42600860008381526020019081526020016000206003015410611dbf576040517f08c379a0000000000000000000000000000000000000000000000000000000008152600401611db6906136f3565b60405180910390fd5b60006008600083815260200190815260200160002060060160006101000a81548160ff02191690831515021790555050565b60015481565b60008054906101000a900473ffffffffffffffffffffffffffffffffffffffff1673ffffffffffffffffffffffffffffffffffffffff163373ffffffffffffffffffffffffffffffffffffffff1614611e85576040517f08c379a0000000000000000000000000000000000000000000000000000000008152600401611e7c9061300f565b60405180910390fd5b60008551118015611e97575060008451115b611ed6576040517f08c379a0000000000000000000000000000000000000000000000000000000008152600401611ecd90613785565b60405180910390fd5b60008311611f19576040517f08c379a0000000000000000000000000000000000000000000000000000000008152600401611f10906137f1565b60405180910390fd5b60026000815480929190611f2c90612f55565b919050555060405180610120016040528060025481526020018681526020018581526020018442611f5d91906131df565b8152602001670de0b6b3a76400008152602001670de0b6b3a7640000815260200160011515815260200183815260200182815250600860006002548152602001908152602001600020600082015181600001556020820151816001019081611fc591906139b3565b506040820151816002019081611fdb91906139b3565b50606082015181600301556080820151816004015560a0820151816005015560c08201518160060160006101000a81548160ff02191690831515021790555060e082015181600701908161202f91906139b3565b50610100820151816008015590505080600960006002548152602001908152602001600020819055506002547fb0a56c8543f27654cb4e8d0ec0ea3c594517babdef6da9a91909f7ee28312b708686868686604051612092959493929190613a85565b60405180910390a25050505050565b6008600083815260200190815260200160002060060160009054906101000a900460ff16612104576040517f08c379a00000000000000000000000000000000000000000000000000000000081526004016120fb9061307b565b60405180910390fd5b4260086000848152602001908152602001600020600301541161215c576040517f08c379a000000000000000000000000000000000000000000000000000000000815260040161215390613b39565b60405180910390fd5b6000341161219f576040517f08c379a0000000000000000000000000000000000000000000000000000000008152600401612196906131bf565b60405180910390fd5b60006008600084815260200190815260200160002090506000349050821561224b57808260040160008282546121d591906131df565b9250508190555080600660003373ffffffffffffffffffffffffffffffffffffffff1673ffffffffffffffffffffffffffffffffffffffff1681526020019081526020016000206000868152602001908152602001600020600001600082825461223f91906131df565b925050819055506122d1565b8082600501600082825461225f91906131df565b9250508190555080600660003373ffffffffffffffffffffffffffffffffffffffff1673ffffffffffffffffffffffffffffffffffffffff168152602001908152602001600020600086815260200190815260200160002060010160008282546122c991906131df565b925050819055505b833373ffffffffffffffffffffffffffffffffffffffff167fe407334acb3e7927b72550847e6c9c4ead41f6f2b16820ad3953717b010f6818856040516123189190612a36565b60405180910390a350505050565b600080600a60009054906101000a900473ffffffffffffffffffffffffffffffffffffffff1673ffffffffffffffffffffffffffffffffffffffff1663524f3889846040518263ffffffff1660e01b81526004016123849190613b59565b6040805180830381865afa1580156123a0573d6000803e3d6000fd5b505050506040513d601f19601f820116820180604052508101906123c49190613b90565b50905080915050919050565b60405180610120016040528060008152602001606081526020016060815260200160008152602001600081526020016000815260200160001515815260200160608152602001600081525090565b60405180606001604052806000815260200160008152602001600081525090565b6000604051905090565b600080fd5b600080fd5b600073ffffffffffffffffffffffffffffffffffffffff82169050919050565b600061247e82612453565b9050919050565b61248e81612473565b811461249957600080fd5b50565b6000813590506124ab81612485565b92915050565b6000819050919050565b6124c4816124b1565b81146124cf57600080fd5b50565b6000813590506124e1816124bb565b92915050565b600080604083850312156124fe576124fd612449565b5b600061250c8582860161249c565b925050602061251d858286016124d2565b9150509250929050565b612530816124b1565b82525050565b600060408201905061254b6000830185612527565b6125586020830184612527565b9392505050565b60006020820190506125746000830184612527565b92915050565b6000602082840312156125905761258f612449565b5b600061259e848285016124d2565b91505092915050565b600081519050919050565b600082825260208201905092915050565b6000819050602082019050919050565b6125dc816124b1565b82525050565b600081519050919050565b600082825260208201905092915050565b60005b8381101561261c578082015181840152602081019050612601565b60008484015250505050565b6000601f19601f8301169050919050565b6000612644826125e2565b61264e81856125ed565b935061265e8185602086016125fe565b61266781612628565b840191505092915050565b60008115159050919050565b61268781612672565b82525050565b6000610120830160008301516126a660008601826125d3565b50602083015184820360208601526126be8282612639565b915050604083015184820360408601526126d88282612639565b91505060608301516126ed60608601826125d3565b50608083015161270060808601826125d3565b5060a083015161271360a08601826125d3565b5060c083015161272660c086018261267e565b5060e083015184820360e086015261273e8282612639565b9150506101008301516127556101008601826125d3565b508091505092915050565b600061276c838361268d565b905092915050565b6000602082019050919050565b600061278c826125a7565b61279681856125b2565b9350836020820285016127a8856125c3565b8060005b858110156127e457848403895281516127c58582612760565b94506127d083612774565b925060208a019950506001810190506127ac565b50829750879550505050505092915050565b600060208201905081810360008301526128108184612781565b905092915050565b61282181612473565b82525050565b600060208201905061283c6000830184612818565b92915050565b61284b81612672565b811461285657600080fd5b50565b60008135905061286881612842565b92915050565b60008060006060848603121561288757612886612449565b5b6000612895868287016124d2565b93505060206128a6868287016124d2565b92505060406128b786828701612859565b9150509250925092565b600082825260208201905092915050565b60006128dd826125e2565b6128e781856128c1565b93506128f78185602086016125fe565b61290081612628565b840191505092915050565b61291481612672565b82525050565b600061012082019050612930600083018c612527565b8181036020830152612942818b6128d2565b90508181036040830152612956818a6128d2565b90506129656060830189612527565b6129726080830188612527565b61297f60a0830187612527565b61298c60c083018661290b565b81810360e083015261299e81856128d2565b90506129ae610100830184612527565b9a9950505050505050505050565b6000819050919050565b60006129e16129dc6129d784612453565b6129bc565b612453565b9050919050565b60006129f3826129c6565b9050919050565b6000612a05826129e8565b9050919050565b612a15816129fa565b82525050565b6000602082019050612a306000830184612a0c565b92915050565b6000602082019050612a4b600083018461290b565b92915050565b600060208284031215612a6757612a66612449565b5b6000612a758482850161249c565b91505092915050565b600081519050919050565b600082825260208201905092915050565b6000819050602082019050919050565b606082016000820151612ac060008501826125d3565b506020820151612ad360208501826125d3565b506040820151612ae660408501826125d3565b50505050565b6000612af88383612aaa565b60608301905092915050565b6000602082019050919050565b6000612b1c82612a7e565b612b268185612a89565b9350612b3183612a9a565b8060005b83811015612b62578151612b498882612aec565b9750612b5483612b04565b925050600181019050612b35565b5085935050505092915050565b60006020820190508181036000830152612b898184612b11565b905092915050565b6000608082019050612ba66000830187612527565b612bb36020830186612818565b612bc0604083018561290b565b612bcd6060830184612527565b95945050505050565b600080fd5b600080fd5b7f4e487b7100000000000000000000000000000000000000000000000000000000600052604160045260246000fd5b612c1882612628565b810181811067ffffffffffffffff82111715612c3757612c36612be0565b5b80604052505050565b6000612c4a61243f565b9050612c568282612c0f565b919050565b600067ffffffffffffffff821115612c7657612c75612be0565b5b612c7f82612628565b9050602081019050919050565b82818337600083830152505050565b6000612cae612ca984612c5b565b612c40565b905082815260208101848484011115612cca57612cc9612bdb565b5b612cd5848285612c8c565b509392505050565b600082601f830112612cf257612cf1612bd6565b5b8135612d02848260208601612c9b565b91505092915050565b600080600080600060a08688031215612d2757612d26612449565b5b600086013567ffffffffffffffff811115612d4557612d4461244e565b5b612d5188828901612cdd565b955050602086013567ffffffffffffffff811115612d7257612d7161244e565b5b612d7e88828901612cdd565b9450506040612d8f888289016124d2565b935050606086013567ffffffffffffffff811115612db057612daf61244e565b5b612dbc88828901612cdd565b9250506080612dcd888289016124d2565b9150509295509295909350565b60008060408385031215612df157612df0612449565b5b6000612dff858286016124d2565b9250506020612e1085828601612859565b9150509250929050565b600060208284031215612e3057612e2f612449565b5b600082013567ffffffffffffffff811115612e4e57612e4d61244e565b5b612e5a84828501612cdd565b91505092915050565b7f4e487b7100000000000000000000000000000000000000000000000000000000600052602260045260246000fd5b60006002820490506001821680612eaa57607f821691505b602082108103612ebd57612ebc612e63565b5b50919050565b7f4e487b7100000000000000000000000000000000000000000000000000000000600052601160045260246000fd5b6000612efd826124b1565b9150612f08836124b1565b9250828203905081811115612f2057612f1f612ec3565b5b92915050565b7f4e487b7100000000000000000000000000000000000000000000000000000000600052603260045260246000fd5b6000612f60826124b1565b91507fffffffffffffffffffffffffffffffffffffffffffffffffffffffffffffffff8203612f9257612f91612ec3565b5b600182019050919050565b7f4f6e6c7920746865206f776e65722063616e2063616c6c20746869732066756e60008201527f6374696f6e000000000000000000000000000000000000000000000000000000602082015250565b6000612ff96025836128c1565b915061300482612f9d565b604082019050919050565b6000602082019050818103600083015261302881612fec565b9050919050565b7f5175657374696f6e206973206e6f742061637469766500000000000000000000600082015250565b60006130656016836128c1565b91506130708261302f565b602082019050919050565b6000602082019050818103600083015261309481613058565b9050919050565b7f5175657374696f6e20686173206e6f7420656e64656420796574000000000000600082015250565b60006130d1601a836128c1565b91506130dc8261309b565b602082019050919050565b60006020820190508181036000830152613100816130c4565b9050919050565b7f5175657374696f6e20616c7265616479207265736f6c76656400000000000000600082015250565b600061313d6019836128c1565b915061314882613107565b602082019050919050565b6000602082019050818103600083015261316c81613130565b9050919050565b7f416d6f756e74206d7573742062652067726561746572207468616e2030000000600082015250565b60006131a9601d836128c1565b91506131b482613173565b602082019050919050565b600060208201905081810360008301526131d88161319c565b9050919050565b60006131ea826124b1565b91506131f5836124b1565b925082820190508082111561320d5761320c612ec3565b5b92915050565b7f43616e206f6e6c792077697468647261772077696e6e696e6720626574730000600082015250565b6000613249601e836128c1565b915061325482613213565b602082019050919050565b600060208201905081810360008301526132788161323c565b9050919050565b7f496e73756666696369656e742079657320766f74657300000000000000000000600082015250565b60006132b56016836128c1565b91506132c08261327f565b602082019050919050565b600060208201905081810360008301526132e4816132a8565b9050919050565b600081905092915050565b50565b60006133066000836132eb565b9150613311826132f6565b600082019050919050565b6000613327826132f9565b9150819050919050565b7f5472616e73666572206661696c65640000000000000000000000000000000000600082015250565b6000613367600f836128c1565b915061337282613331565b602082019050919050565b600060208201905081810360008301526133968161335a565b9050919050565b7f496e73756666696369656e74206e6f20766f7465730000000000000000000000600082015250565b60006133d36015836128c1565b91506133de8261339d565b602082019050919050565b60006020820190508181036000830152613402816133c6565b9050919050565b6000613414826124b1565b915061341f836124b1565b925082820261342d816124b1565b9150828204841483151761344457613443612ec3565b5b5092915050565b7f4e487b7100000000000000000000000000000000000000000000000000000000600052601260045260246000fd5b6000613485826124b1565b9150613490836124b1565b9250826134a05761349f61344b565b5b828204905092915050565b7f496e73756666696369656e7420636f6e74726163742062616c616e6365000000600082015250565b60006134e1601d836128c1565b91506134ec826134ab565b602082019050919050565b60006020820190508181036000830152613510816134d4565b9050919050565b7f416d6f756e74206d7573742062652067726561746572207468616e206f72206560008201527f7175616c20746f20302e31206574686572000000000000000000000000000000602082015250565b60006135736031836128c1565b915061357e82613517565b604082019050919050565b600060208201905081810360008301526135a281613566565b9050919050565b7f4e6f74206120737562736372696265722c20666972737420737562736372696260008201527f6520617320616e206167656e7400000000000000000000000000000000000000602082015250565b6000613605602d836128c1565b9150613610826135a9565b604082019050919050565b60006020820190508181036000830152613634816135f8565b9050919050565b7f596f752061726520616c726561647920616e206167656e740000000000000000600082015250565b60006136716018836128c1565b915061367c8261363b565b602082019050919050565b600060208201905081810360008301526136a081613664565b9050919050565b7f5175657374696f6e206973206e6f742065787069726564000000000000000000600082015250565b60006136dd6017836128c1565b91506136e8826136a7565b602082019050919050565b6000602082019050818103600083015261370c816136d0565b9050919050565b7f5175657374696f6e20616e64206465736372697074696f6e206d757374206e6f60008201527f7420626520656d70747900000000000000000000000000000000000000000000602082015250565b600061376f602a836128c1565b915061377a82613713565b604082019050919050565b6000602082019050818103600083015261379e81613762565b9050919050565b7f456e642074696d65206d75737420626520696e20746865206675747572650000600082015250565b60006137db601e836128c1565b91506137e6826137a5565b602082019050919050565b6000602082019050818103600083015261380a816137ce565b9050919050565b60008190508160005260206000209050919050565b60006020601f8301049050919050565b600082821b905092915050565b6000600883026138737fffffffffffffffffffffffffffffffffffffffffffffffffffffffffffffffff82613836565b61387d8683613836565b95508019841693508086168417925050509392505050565b60006138b06138ab6138a6846124b1565b6129bc565b6124b1565b9050919050565b6000819050919050565b6138ca83613895565b6138de6138d6826138b7565b848454613843565b825550505050565b600090565b6138f36138e6565b6138fe8184846138c1565b505050565b5b81811015613922576139176000826138eb565b600181019050613904565b5050565b601f8211156139675761393881613811565b61394184613826565b81016020851015613950578190505b61396461395c85613826565b830182613903565b50505b505050565b600082821c905092915050565b600061398a6000198460080261396c565b1980831691505092915050565b60006139a38383613979565b9150826002028217905092915050565b6139bc826125e2565b67ffffffffffffffff8111156139d5576139d4612be0565b5b6139df8254612e92565b6139ea828285613926565b600060209050601f831160018114613a1d5760008415613a0b578287015190505b613a158582613997565b865550613a7d565b601f198416613a2b86613811565b60005b82811015613a5357848901518255600182019150602085019450602081019050613a2e565b86831015613a705784890151613a6c601f891682613979565b8355505b6001600288020188555050505b505050505050565b600060a0820190508181036000830152613a9f81886128d2565b90508181036020830152613ab381876128d2565b9050613ac26040830186612527565b8181036060830152613ad481856128d2565b9050613ae36080830184612527565b9695505050505050565b7f5175657374696f6e206861732065787069726564000000000000000000000000600082015250565b6000613b236014836128c1565b9150613b2e82613aed565b602082019050919050565b60006020820190508181036000830152613b5281613b16565b9050919050565b60006020820190508181036000830152613b7381846128d2565b905092915050565b600081519050613b8a816124bb565b92915050565b60008060408385031215613ba757613ba6612449565b5b6000613bb585828601613b7b565b9250506020613bc685828601613b7b565b915050925092905056fea26469706673582212206ef009038b6c15f70a71ecf6f2b13bf1e4ded8c8e3bd7b40fc5d680e78dc73f964736f6c634300081c0033",
  "linkReferences": {},
  "deployedLinkReferences": {}
}